:100000000C948F000C94B7000C94B7000C94B700BC
:100010000C94B7000C94B7000C94B7000C94B70084
:100020000C94B7000C94B7000C94B7000C94B30672
:100030000C94B7000C94B7000C94B7000C94B70064
:100040000C94F90E0C94B7000C941C040C94F60359
:100050000C94B7000C94B7000C94B7000C94B70044
:100060000C940E080C94B70008000000BE922449BE
:10007000123EABAAAA2ABECDCCCC4C3E00000080DA
:10008000BEABAAAAAA3E00000000BF000000803F4D
:100090000000000000084178D3BB4387D1133D190D
:1000A0000E3CC3BD4282AD2B3E68EC8276BED98F3A
:1000B000E1A93E4C80EFFFBE01C4FF7F3F0000007E
:1000C00000000000000023002600290000000000BE
:1000D000250028002B000404040404040404020284
:1000E00002020202030303030303010204081020B7
:1000F00040800102040810200102040810200000C2
:1001000000080002010000030407000000000000D6
:10011000000000000000240027002A00D814112449
:100120001FBECFEFD8E0DEBFCDBF12E0A0E0B1E050
:10013000EAE4F3E302C005900D92A83BB107D9F7BA
:1001400025E0A8EBB2E001C01D92A531B207E1F7AE
:1001500010E0CFE8D0E004C02197FE010E949D1975
:10016000CE38D107C9F70E94430F0C94A3190C9401
:100170000000CF92DF92EF92FF920F931F93CF93E5
:10018000DF936C017A018B01C0E0D0E0CE15DF0572
:1001900081F0D8016D918D01D601ED91FC91019016
:1001A000F081E02DC6010995892B11F02196EECF43
:1001B0007E01C701DF91CF911F910F91FF90EF90CA
:1001C000DF90CF900895FC01538D448D252F30E0B2
:1001D000842F90E0821B930B541710F0CF96089554
:1001E00001970895FC01918D828D981761F0828DA1
:1001F000DF01A80FB11D5D968C91928D9F5F9F735B
:10020000928F90E008958FEF9FEF0895FC01918DFC
:10021000828D981731F0828DE80FF11D858D90E069
:1002200008958FEF9FEF0895FC01918D228D892F06
:1002300090E0805C9F4F821B91098F7399270895EE
:1002400088E793E00E94140121E0892B09F420E063
:10025000822F0895FC01848DDF01A80FB11DA35AE0
:10026000BF4F2C91848D90E001968F739927848FD6
:10027000A689B7892C93A089B1898C9183708064F9
:100280008C93938D848D981306C00288F389E02D9A
:1002900080818F7D80830895EF92FF920F931F934B
:1002A000CF93DF93EC0181E0888F9B8D8C8D981329
:1002B00005C0E889F989808185FD26C0F62E0B8D61
:1002C00010E00F5F1F4F0F731127E02E8C8DE81287
:1002D0000CC00FB607FCFACFE889F989808185FF49
:1002E000F5CFCE010E942A01F1CF8B8DFE01E80FE0
:1002F000F11DE35AFF4FF0829FB7F8940B8FEA8904
:10030000FB89808180620AC09FB7F894EE89FF89DB
:100310006083E889F98980818370806480839FBFCE
:1003200081E090E0DF91CF911F910F91FF90EF90CE
:100330000895CF93DF93EC01888D8823C9F0EA8973
:10034000FB89808185FD05C0A889B9898C9186FDCE
:100350000FC00FB607FCF5CF808185FFF2CFA889CB
:10036000B9898C9185FFEDCFCE010E942A01E7CF9C
:10037000DF91CF91089580E090E0892B29F00E94D1
:10038000200181110C940000089580E890E0089508
:10039000EF92FF920F931F93CF93DF938C017B011A
:1003A000C1E0D0E0D801ED91FC910190F081E02D09
:1003B000C80109958C179D0754F0CE15DF0521F46F
:1003C000F801D78BC68B03C0CC0FDD1FEBCFD80154
:1003D00056968D919C915797DF91CF911F910F91D8
:1003E000FF90EF90089585ED8093BC008091BC0054
:1003F00084FDFCCF1092680308954091F802262FE7
:1004000030E0240F311D21323105DCF420916803E6
:100410002430C9F4FC0180E090E0861758F4309154
:10042000F8022191DC01A852BD4FA30FB11D2C93FE
:100430000196F3CF8091F802680F6093F80280E094
:10044000089581E0089582E008950895089508953B
:10045000E0916C0380916B03E81730F4F0E0E8540E
:10046000FD4F808190E008958FEF9FEF0895909168
:100470006C0380916B03981750F4E92FF0E0E85477
:10048000FD4F208130E09F5F90936C0302C02FEFFF
:100490003FEFC901089580916B0390E020916C03B8
:1004A000821B91090895CF92DF92EF92FF920F93F2
:1004B0001F93CF93DF937C01CB018A0120913F03EF
:1004C000222389F0EB016B01C40ED51ECC15DD058E
:1004D00069F06991D701ED91FC910190F081E02DD7
:1004E000C7010995F3CF642F0E94FD01C801DF9178
:1004F000CF911F910F91FF90EF90DF90CF900895D3
:10050000CF93DF931F92CDB7DEB7698320913F036E
:100510002223D1F020916903203240F021E030E025
:10052000FC013383228380E090E015C080916A0350
:10053000E82FF0E0E05CFC4F998190838F5F80931F
:100540006A038093690305C061E0CE0101960E94B1
:10055000FD0181E090E00F90DF91CF910895089523
:1005600080E090E00895DC01ED91FC910190F08134
:10057000E02D09946115710579F0FB0101900020CF
:10058000E9F73197AF01461B570BDC01ED91FC9168
:100590000280F381E02D099480E090E008958F922D
:1005A0009F92AF92BF92EF92FF920F931F93CF93C0
:1005B000DF93CDB7DEB7A1970FB6F894DEBF0FBEBD
:1005C000CDBF7C01FA01CB0119A2223008F42AE048
:1005D0008E010F5D1F4F822E912CA12CB12CBF01DB
:1005E000A50194010E940416F901CA0101501109E4
:1005F0006A3014F4605D01C0695CD8016C93232BF0
:10060000242B252B61F7B801C7010E94BA02A196DD
:100610000FB6F894DEBF0FBECDBFDF91CF911F9113
:100620000F91FF90EF90BF90AF909F908F900895A3
:100630007F928F929F92AF92BF92CF92DF92EF9272
:10064000FF920F931F93CF93DF938C016A017B017D
:10065000722E9A01AB01C701B6010E9409198823C5
:1006600019F068E471E027C046015701E894B7F833
:100670002FEF3FEF4FE75FE7C501B4010E94091973
:1006800081110DC02FEF3FEF4FE75FE7C501B401C8
:100690000E94A21618161CF46CE471E00CC02FEF37
:1006A0003FEF4FE75FE4C701B6010E94011818163B
:1006B00094F460E571E0C801DF91CF911F910F9133
:1006C000FF90EF90DF90CF90BF90AF909F908F9072
:1006D0007F900C94BA022FEF3FEF4FE75FECC7011A
:1006E000B6010E94A21687FDE4CF20E030E0A90108
:1006F000C701B6010E94A21687FF0AC06DE2C801B9
:100700000E94B302EC01F7FAF094F7F8F09402C0FB
:10071000C0E0D0E0B12C60E070E080E09FE37B14AB
:1007200041F020E030E040E251E40E94A716B3948B
:10073000F6CFA70196010E9436166B017C010E943C
:1007400020174B015C012AE0AB01BC01C8010E94EB
:10075000CF02C80FD91F7720C1F1C501B4010E9493
:100760004F179B01AC01C701B6010E9435166B0102
:100770007C016EE2C8010E94B302C80FD91F20E0BD
:1007800030E040E251E4C701B6010E9456184B0127
:100790005C010E9420176B01E12CF12C2AE0B701CB
:1007A000A601C8010E94CF02C80FD91FC701B60118
:1007B0000E944F179B01AC01C501B4010E94351680
:1007C0006B017C017A947110DACFCE01DF91CF9169
:1007D0001F910F91FF90EF90DF90CF90BF90AF905F
:1007E0009F908F907F9008950C94BA021F920F9261
:1007F0000FB60F9211242F933F934F935F936F93F4
:100800007F938F939F93AF93BF93EF93FF9388E76B
:1008100093E00E942A01FF91EF91BF91AF919F91C8
:100820008F917F916F915F914F913F912F910F9099
:100830000FBE0F901F9018951F920F920FB60F9238
:1008400011242F938F939F93EF93FF93E09188034D
:10085000F09189038081E0918E03F0918F0382FDF6
:1008600012C09081809191038F5F8F7320919203CA
:10087000821751F0E0919103F0E0E858FC4F958F1A
:100880008093910301C08081FF91EF919F918F919F
:100890002F910F900FBE0F901F9018952F923F929F
:1008A0004F925F926F927F928F929F92AF92BF9280
:1008B000CF92DF92EF92FF920F931F93CF93DF932C
:1008C000CDB7DEB72A970FB6F894DEBF0FBECDBF07
:1008D0009A8389838FB7F8942091740330917503BC
:1008E00040917603509177032D833E834F83588741
:1008F0008FBFE981FA8180A191A1A2A1B3A14D810D
:100900005E816F817885481B590B6A0B7B0B84A530
:1009100095A5A6A5B7A5481759076A077B0708F448
:10092000D6C0FA87E987028CF38DE02DC080D18094
:10093000E280F380A985BA855E96ED91FC915F9780
:10094000A701960160817181828193810E94351691
:100950002B013C01E985FA85208931894289538937
:100960000E945618A985BA8594962D913D914D9176
:100970005C9197970E9436164B015C01E985FA85D8
:1009800064A375A386A397A314A905A936A827A8CD
:10099000212F302F432D522D0E94011818165CF480
:1009A000812F902FA32DB22DE985FA8584A395A3DD
:1009B000A6A3B7A31EC0A985BA85D0962D913D9157
:1009C0004D915C91D39729833A834B835C83C50116
:1009D000B4010E94A21687FF0CC029813A814B8185
:1009E0005C81A985BA8594962D933D934D935C9334
:1009F0009797E985FA852485358546855785C3010E
:100A0000B2010E945618A985BA8594962D913D9100
:100A10004D915C9197970E9436164B015C01E985D8
:100A2000FA8520A531A542A553A5C701B6010E94AC
:100A30003516A985BA8554962D913D914D915C91BD
:100A400057970E9456189B01AC01C501B4010E9442
:100A500035164B015C019B01AC01612F702F832D7A
:100A6000922D0E94A21687FD14C0E985FA8510A96F
:100A700001A932A823A8212F302F432D522DB401D4
:100A8000C5010E94A21687FD04C0182D092D3A2C1D
:100A90002B2CA985BA855C96ED91FC915D97812FF1
:100AA000902FA32DB22D80839183A283B383E985F8
:100AB000FA85C0A6D1A6E2A6F3A62D813E814F817C
:100AC000588520A331A342A353A381E001C080E055
:100AD0002A960FB6F894DEBF0FBECDBFDF91CF913F
:100AE0001F910F91FF90EF90DF90CF90BF90AF904C
:100AF0009F908F907F906F905F904F903F902F903E
:100B000008958F929F92AF92BF92CF92DF92EF9211
:100B1000FF921F93CF93DF93EC0111E061307105D9
:100B200009F010E098AD81E08927181330C0EC8DF2
:100B3000FD8DC080D180E280F380CCA2DDA2EEA248
:100B4000FFA2EA8DFB8D80819181A281B38188A76C
:100B500099A7AAA7BBA78CA89DA8AEA8BFA8A501C6
:100B60009401C701B6010E940118181664F088A804
:100B700099A8AAA8BBA8A5019401C701B6010E9423
:100B8000A21687FF04C08CA29DA2AEA2BFA218AF7E
:100B9000DF91CF911F91FF90EF90DF90CF90BF90AA
:100BA000AF909F908F900895CF92DF92EF92FF9237
:100BB000CF93DF93EC01603282E078070CF03DC008
:100BC00077FD06C0653B71052CF064EB70E002C058
:100BD00060E070E0898128E830E06901C81AD10836
:100BE00087FDD394CC0CDD1CCC0CDD1C0D2C000C33
:100BF000EE08FF088A8128E532E0281B310987FDCD
:100C00003395220F331F220F331FC901330FAA0B55
:100C1000BB0B9C01AD012C193D094E095F09DB019D
:100C20000E94FC1524EB30E040E050E00E94D21519
:100C3000C20ED31EE41EF51EB60138813C3080F58D
:100C4000298188E890E0821B910927FD9395880F00
:100C5000991F880F991F6817790784F08A8148E5E2
:100C600052E0481B510987FD5395440F551F440F0F
:100C7000551FCB01461757070CF4CA010297880F7E
:100C8000991F4FB7F894232F30E0F901EE0FFF1FA3
:100C90002E0F3F1FF901EF5DFB4F928381834FBF02
:100CA000DF91CF91FF90EF90DF90CF9008951F9349
:100CB000CF93DF93EC01162F88818C3008F04EC063
:100CC00061E0812F0E94E80D8881E82FF0E09F010C
:100CD000220F331FE20FF31FEF5DFB4F1F73908155
:100CE000907C192B108319821A826CE00E945A1989
:100CF0009CE0899FB001112440E050E09B01240F4B
:100D0000351FF901EE0FFF1F2E0F3F1FF901EF5D99
:100D1000FB4F908196FD16C04F5F5F4F4C305105E1
:100D200069F781110FC01092800082E080938100EA
:100D30001092850010928400B19A80916F008260B9
:100D400080936F00E881F0E0CF01880F991FE80FD2
:100D5000F91FEF5DFB4F8081806480838881DF9184
:100D6000CF911F9108951F920F920FB60F921124E9
:100D70002F933F934F935F936F937F938F939F93A3
:100D8000AF93BF93EF93FF938091610387FF05C0FB
:100D900010928500109284001BC020916103022EE6
:100DA000000C330B8091450490E02817390784F438
:100DB00080916103082E000C990BFC01EE0FFF1FC0
:100DC0008E0F9F1FFC01EF5DFB4F808186FD15C0DC
:100DD000809161038F5F8093610320916103022EF4
:100DE000000C330B8091450490E028173907C4F4B8
:100DF000809161038C3064F113C080916103082EEF
:100E0000000C990BFC01EE0FFF1F8E0F9F1FFC01C2
:100E1000EF5DFB4F808160E08F730E94B90DD8CFEA
:100E20008091840090918500049680349C4918F448
:100E300080E49CE905C0809184009091850004962F
:100E400090938900809388008FEF809361033BC06B
:100E5000209184003091850080916103082E000C60
:100E6000990BFC01EE0FFF1F8E0F9F1FFC01EF5D22
:100E7000FB4F81819281820F931F90938900809311
:100E8000880080916103082E000C990BFC01EE0F85
:100E9000FF1F8E0F9F1FFC01EF5DFB4F808186FFC0
:100EA00012C080916103082E000C990BFC01EE0F1B
:100EB000FF1F8E0F9F1FFC01EF5DFB4F808161E0E4
:100EC0008F730E94B90DFF91EF91BF91AF919F91E8
:100ED0008F917F916F915F914F913F912F910F90E3
:100EE0000FBE0F901F901895CF93FC01C48121E095
:100EF00020933F03C093600310926A03109269032A
:100F00008385682B85E194E00E94800290916903BB
:100F1000913208F045C0809168038111FCCF82E0D6
:100F20008093680381E0809367038FEF80933E0393
:100F300010923D0390933C03A0E4B3E0ECE1F3E0B6
:100F400080E0981721F02D9121938F5FFACF1092B6
:100F50001B0380911B03CC0FC82BC0931B038091F4
:100F60006603813061F41092660380911B038093C5
:100F7000BB008091BC0083FDF8CF85EC01C085EEFD
:100F80008093BC00809168038230E1F380913E033E
:100F90008F3F31F080913E03803211F080913E030B
:100FA00010926A031092690310923F03CF91089543
:100FB0000F931F93CF938C01C62F0E9474076C2F41
:100FC0006460C8010E9474076C2F6B7FC8010E9487
:100FD000740783EC90E00197F1F7CF911F910F9187
:100FE00008950F931F93CF93DF938C01C62FD42FB7
:100FF000607F642B0E94D80780E1C89FB001112454
:101000006D2BC801DF91CF911F910F910C94D807E0
:1010100041E00E94F10781E090E008951F920F9255
:101020000FB60F9211242F933F934F935F936F93BB
:101030007F938F939F93AF93BF93EF93FF93809191
:10104000B900887F803609F49CC068F5883209F4BD
:101050005BC090F4803109F454C038F4882309F45B
:10106000F6C0883009F44DC0F6C0883109F44CC090
:10107000803209F45DC0EFC0803409F468C048F4E0
:10108000803309F455C0883309F0E5C080933E03EE
:10109000D8C0803509F44FC0883509F45DC0883464
:1010A00009F0D9C0D6C0883909F4C7C0A8F4883778
:1010B00009F467C038F4883609F463C0803709F44E
:1010C00060C0C9C0883809F4B8C0803909F45FC06D
:1010D000803809F0C0C05BC0803B09F486C038F49A
:1010E000803A09F466C0883A09F47FC0B4C0803CF5
:1010F00009F4A7C0883C09F4A4C0883B09F48AC05D
:10110000AAC080911B0310C090913D0380913C03C5
:10111000981770F5E0913D0381E08E0F80933D03B9
:10112000F0E0E45EFC4F80818093BB0085EC86C0DC
:1011300080933E038EC0E0913D0381E08E0F80934B
:101140003D038091BB00F0E0E45EFC4F8083909112
:101150003D0380913C036EC0E0913D0381E08E0F22
:1011600080933D038091BB00F0E0E45EFC4F808300
:101170008091670381116DC081E08093660384EAEA
:1011800061C083E08093680310921A03CFCF8091EF
:101190001A03803208F051C0E0911A0381E08E0FEB
:1011A00080931A038091BB00F0E0E650FD4F8083EE
:1011B000BDCF85EC8093BC001092680380911A0328
:1011C000803230F4E0911A03F0E0E650FD4F1082D7
:1011D00060911A0370E0E0916203F09163038AEF7B
:1011E00092E0099510921A0336C084E08093680358
:1011F0001092F9021092F802E0916403F0916503F5
:1012000009958091F802811105C081E08093F80270
:101210001092D802E091F90281E08E0F8093F902DA
:10122000F0E0E852FD4F80818093BB009091F9027D
:101230008091F802981708F479CF85E88093BC0074
:101240000AC085EC8093BC001092680304C0109221
:101250003E030E94F301FF91EF91BF91AF919F91E7
:101260008F917F916F915F914F913F912F910F904F
:101270000FBE0F901F9018954F925F926F927F92C2
:101280008F929F92AF92BF92CF92DF92EF92FF9296
:10129000CF93DF93CDB7DEB72C970FB6F894DEBFB0
:1012A0000FBECDBF8FE00E94830EBC01990F880B4B
:1012B000990B0E9451172AE038E240EA5BE30E9452
:1012C00056186B017C0164E571E088E793E00E94A9
:1012D000F403C701B6010E947B0DC0929204D09224
:1012E0009304E0929404F09295048091CE048823B4
:1012F00021F086E994E00E944E046BE671E088E7F5
:1013000093E00E94F40360918E0470918F048091A9
:101310009004909191040E947B0D60918E047091D5
:101320008F0480919004909191040E941917A091CC
:101330006004B09161049B010E947A199B01AC0189
:10134000A0916804B09169040E94FC1528E631E080
:1013500040E050E00E94D215CA01B9010E948E0BF4
:101360008091760490917704A0917804B0917904EB
:10137000181619061A061B060CF049C180905C0469
:1013800090905D04A0905E04B0905F04811491047D
:10139000A104B10439F560918604809162040E9431
:1013A000B90D61E0809164040E94B90D0E949A0E0B
:1013B00069877A878B879C87C0908204D09083044A
:1013C000E0908404F09085048091760490917704F5
:1013D000A0917804B0917904181619061A061B0614
:1013E00004F1D0C0C0905804D0905904E0905A0441
:1013F000F0905B04C114D104E104F10421F40E94D3
:101400009A0E6B017C010E949A0EDC01CB018C19B3
:101410009D09AE09BF0988159905AA05BB0598F372
:10142000BACF9C01AD0121503109410951092093E6
:101430007604309377044093780450937904809035
:10144000720490907304A0907404B09075048FEFB0
:10145000881A980AA80AB80A8092720490927304B3
:10146000A0927404B092750480916C0490916D0404
:10147000019709F087C0211531054105510509F48F
:1014800081C080917E0490917F04A0918004B091EE
:10149000810482179307A407B5070CF0EAC04090B7
:1014A0007A0450907B0460907C0470907D04481412
:1014B00059046A047B040CF465C080915404909133
:1014C0005504A0915604B091570489839A83AB8345
:1014D000BC83D501C40122E0880F991FAA1FBB1F3E
:1014E0002A95D1F79C01AD012F5F3F4F4F4F5F4FC2
:1014F0002D833E834F835887D701C601880F991FDC
:10150000AA1FBB1F29813A814B815C81280F391F9B
:101510004A1F5B1FCA01B9012D813E814F81588549
:101520000E94D215D701C601821B930BA40BB50BE9
:101530008093820490938304A0938404B0938504E1
:1015400084149504A604B7040CF0D1C0880F991F29
:10155000AA1FBB1F29813A814B815C81280F391F4B
:101560004A1F5B1FCA01B9012D813E814F815885F9
:101570000E94D215609354047093550480935604CE
:10158000909357040E949A0EAB01A985BA854A1B15
:101590005B0B5A834983452B79F40E949A0E4B01C9
:1015A0005C010E949A0E86169706A806B906C9F332
:1015B00021E030E03A83298360E0809164040E9456
:1015C000B90D0E949A0E6093580470935904809349
:1015D0005A0490935B0449815A81CA01A0E0B0E0AB
:1015E0008C159D05AE05BF052CF4C81AD90AEA0A68
:1015F000FB0A04C0C12CD12C7601C394C0925C04B8
:10160000D0925D04E0925E04F0925F0410C01092EC
:1016100058041092590410925A0410925B041092CC
:101620005C0410925D0410925E0410925F0480913D
:101630005C0490915D04A0915E04B0915F04892BDD
:101640008A2B8B2B09F08CCE2C960FB6F894DEBF2C
:101650000FBECDBFDF91CF91FF90EF90DF90CF9085
:10166000BF90AF909F908F907F906F905F904F90C2
:1016700008958090540490905504A0905604B09022
:101680005704ACEFBFEF0E94FF152B013C015FEF49
:10169000451A550A650A750AD701C601880F991FB0
:1016A000AA1FBB1FBC01CD01680D791D8A1D9B1DA2
:1016B000A30192010E94D215D701C601821B930B90
:1016C000A40BB50B8093820490938304A0938404AD
:1016D000B0938504880F991FAA1FBB1FBC01CD01C1
:1016E000680D791D8A1D9B1DA301920141CF60E009
:1016F00070E0CB013FCFCF93DF93BC0188E793E04D
:101700000E94BA02EC0165EB72E088E793E00E9468
:10171000BA028C0F9D1FDF91CF9108952F923F92B7
:101720004F925F926F927F928F929F92AF92BF92F1
:10173000CF92DF92EF92FF920F931F93CF93DF939D
:101740006B017C018091760490917704A0917804DC
:10175000B09179040097A105B10529F1DCF340911E
:101760007E0450917F046091800470918104481739
:1017700059076A077B070CF02EC18C0D9D1DAE1D0D
:10178000BF1DF7FE07C084179507A607B70714F417
:10179000DB01CA018093760490937704A0937804C8
:1017A000B093790418C1D701C60180959095A09592
:1017B000B0958827B7FD83959927AA27BB279093D3
:1017C0008704809386041092580410925904109252
:1017D0005A0410925B04F7FE08C0F094E094D09491
:1017E000C094C11CD11CE11CF11CC0927604D092A3
:1017F0007704E0927804F0927904109272041092C7
:101800007304109274041092750410925404109290
:101810005504109256041092570480916C049091D4
:101820006D0420916A0430916B0400916004109162
:101830006104C0916804D0916904019709F099C0CE
:10184000209FC001219F900D309F900D11246CE3CB
:1018500070E00E94661900916E0410916F049B0164
:10186000DB010E947A199B01AC01DE010E94FC158C
:101870009801220F331F032E000C440B550B0E94BE
:10188000D21549015A0120937A0430937B04409386
:101890007C0450937D0420907004309071042101E9
:1018A000032C000C66087708D8010E94FC15A301E0
:1018B00092010E94D21520937E0430937F044093BE
:1018C000800450938104D501C401820F931FA41F8B
:1018D000B51FC816D906EA06FB061CF5A701960136
:1018E000C301B2010E944A199801220D331D032E33
:1018F000000C440B550B0E94D21520937A043093B0
:101900007B0440937C0450937D04C21AD30AE40AFA
:10191000F50AC0927E04D0927F04E0928004F09297
:101920008104C09FB001C19F700DD09F700D112424
:10193000072E000C880B990B0E9451179B01AC01DC
:1019400060E070E080E090E40E94A7160E94C91851
:1019500020E03AE045E259E40E9456180E94191727
:10196000609382047093830480938404909385042D
:1019700032C0032E000C440B550B60E077E883E97E
:1019800093E00E94D215CA01B9019801110F440BCE
:10199000550B0E94D215CA01B9019E01DD0F440BFF
:1019A000550B0E94D21520938204309383044093F8
:1019B00084045093850410927A0410927B04109250
:1019C0007C0410927D0410927E0410927F04109289
:1019D000800410928104DF91CF911F910F91FF90AD
:1019E000EF90DF90CF90BF90AF909F908F907F90BF
:1019F0006F905F904F903F902F900895CF92DF921D
:101A0000EF92FF92CF93DF936C01990FEE08FF08DE
:101A1000F7FE15C06DE288E793E00E94B302EC0187
:101A200044275527BA014C195D096E097F092AE040
:101A300088E793E00E94CF02C80FD91F08C02AE0B0
:101A4000B701A60188E793E00E94CF02EC0165EBA5
:101A500072E088E793E00E94BA028C0F9D1FDF912D
:101A6000CF91FF90EF90DF90CF900895CF93DF93C9
:101A7000CDB7DEB728970FB6F894DEBF0FBECDBF47
:101A800098E0E8E0F1E0DE01119601900D929A9560
:101A9000E1F790914E04961710F46FEF690FFE0175
:101AA0003196E60FF11DE60FF11D6081680F606849
:101AB00040E086E494E028960FB6F894DEBF0FBEAF
:101AC000CDBFDF91CF910C94F10740E061E086E457
:101AD00094E00E94F1078BE39FE10197F1F70895ED
:101AE00040E062E086E494E00E94F1078BE39FE12E
:101AF0000197F1F70895CF93DF93AB01BC0122E08A
:101B000088E793E00E941803EC0165EB72E088E738
:101B100093E00E94BA028C0F9D1FDF91CF91089530
:101B2000833081F028F4813099F08230A1F008955B
:101B30008730A9F08830B9F08430D1F480918000EA
:101B40008F7D03C0809180008F77809380000895FF
:101B500084B58F7702C084B58F7D84BD0895809150
:101B6000B0008F7703C08091B0008F7D8093B0006C
:101B700008951F93CF93DF93282F30E0F901E250AF
:101B8000FF4F8491F901E651FF4FD491F901EA52D8
:101B9000FF4FC491CC23C1F0162F81110E94900DEC
:101BA000EC2FF0E0EE0FFF1FE453FF4FA591B4912F
:101BB0009FB7F894111104C08C91D095D82302C01E
:101BC000EC91DE2BDC939FBFDF91CF911F910895A5
:101BD000CF93DF9390E0FC01E651FF4F2491FC018D
:101BE000EA52FF4F8491882361F190E0880F991F9A
:101BF000FC01EE5EFE4FC591D491FC01E453FF4F12
:101C0000A591B491611109C09FB7F894888120957E
:101C100082238883EC912E230BC0623061F49FB73E
:101C2000F8948881322F309583238883EC912E2B72
:101C30002C939FBF06C08FB7F894E8812E2B288382
:101C40008FBFDF91CF9108951F93CF93DF93182F0C
:101C5000EB0161E00E94E80D209711F460E004C000
:101C6000CF3FD10539F461E0812FDF91CF911F91F2
:101C70000C94B90DE12FF0E0E250FF4FE491E33016
:101C8000F9F048F4E130B9F0E230A1F584B58062B2
:101C900084BDC8BD34C0E730E9F0E83019F1E43064
:101CA00049F580918000806280938000D0938B0002
:101CB000C0938A0024C084B5806884BDC7BD1FC09E
:101CC00080918000806880938000D0938900C093C9
:101CD000880015C08091B00080688093B000C093E8
:101CE000B3000DC08091B00080628093B000C093BB
:101CF000B40005C0C038D1050CF0B5CFAFCFDF912F
:101D0000CF911F9108958E3008F08E5087708064B7
:101D100080937C0080917A00806480937A00809127
:101D20007A0086FDFCCF809178002091790090E0C8
:101D3000922B08953FB7F894809111059091120568
:101D4000A0911305B091140526B5A89B05C02F3F9F
:101D500019F00196A11DB11D3FBFBA2FA92F982FD1
:101D60008827820F911DA11DB11DBC01CD0142E04C
:101D7000660F771F881F991F4A95D1F708958F9294
:101D80009F92AF92BF92CF92DF92EF92FF926B0140
:101D90007C010E949A0E4B015C01C114D104E10444
:101DA000F104F1F00E949A0EDC01CB018819990927
:101DB000AA09BB09883E9340A105B10570F321E053
:101DC000C21AD108E108F10888EE880E83E0981E57
:101DD000A11CB11CC114D104E104F10419F7DDCF39
:101DE000FF90EF90DF90CF90BF90AF909F908F903B
:101DF00008951F920F920FB60F9211242F933F93C5
:101E00008F939F93AF93BF938091740390917503C9
:101E1000A0917603B09177033091100523E0230F52
:101E20002D3720F40196A11DB11D05C026E8230F12
:101E30000296A11DB11D2093100580937403909309
:101E40007503A0937603B093770380911105909169
:101E50001205A0911305B09114050196A11DB11DA5
:101E60008093110590931205A0931305B093140568
:101E7000BF91AF919F918F913F912F910F900FBE86
:101E80000F901F901895789484B5826084BD84B5B6
:101E9000816084BD85B5826085BD85B5816085BD65
:101EA00080916E00816080936E001092810080911D
:101EB00081008260809381008091810081608093A5
:101EC0008100809180008160809380008091B100CA
:101ED00084608093B1008091B00081608093B000F5
:101EE00080917A00846080937A0080917A00826089
:101EF00080937A0080917A00816080937A0080914B
:101F00007A00806880937A001092C10010926C036E
:101F100010926B0310926A03109269031092680387
:101F200081E0809367031092660361E082E10E9482
:101F3000B90D61E083E10E94B90D8091B9008E7FF7
:101F40008093B9008091B9008D7F8093B90088E4B7
:101F50008093B80085E48093BC0085E292E0909382
:101F600065038093640386E292E090936303809319
:101F7000620310924B0480915004823018F098E074
:101F800090934B0480934E0462E370E080E090E015
:101F90000E94BF0E6091510486E494E00E94740791
:101FA00068EE73E080E090E00E94BF0E60E386E49C
:101FB00094E00E94D807CBE4D6E4CE010197F1F774
:101FC00060E386E494E00E94D8072197F1F760E38C
:101FD00086E494E00E94D80783E592E00197F1F748
:101FE00060E286E494E00E94D80760914B0460624E
:101FF00040E086E494E00E94F10784E080934C0482
:1020000040E06CE086E494E00E94F1070E94650DD8
:10201000C2E0C0934D0440E066E086E494E00E9494
:10202000F1070E94700DE0918803F0918903C0834D
:10203000E0918403F09185031082E0918603F09192
:1020400087038FEC808310929003E0918C03F091D2
:102050008D0386E08083E0918A03F0918B03808179
:1020600080618083E0918A03F0918B038081886096
:102070008083E0918A03F0918B0380818068808364
:10208000E0918A03F0918B0380818F7D808360E0F3
:1020900084E00E94E80D60E08EE00E94E80D60E0C0
:1020A0008FE00E94E80D60E080E10E94E80D61E0B1
:1020B00088E00E94E80D61E089E00E94E80D61E09F
:1020C0008AE00E94E80D61E08BE00E94E80DE2E00A
:1020D000F1E08491EEEEF0E0D491EAEDF0E0C4910D
:1020E000CC2391F081110E94900DEC2FF0E0EE0FC7
:1020F000FF1FEE53FF4FA591B491EC91ED23D1E07A
:10210000C0E021F4D0E002C0D0E0C0E06BE771E0B5
:1021100088E793E00E94F4038D2F9C2F0E94FE0C11
:10212000D0937203C093730389E891E00E947B0B04
:1021300066EA71E088E793E00E94F40380917203FD
:10214000909173030E94FE0C60E070E089E00E94B1
:10215000240E60E070E08AE00E94240E60E070E0EF
:102160008BE00E94240E65E070E08BE894E00E9412
:10217000570666E070E088E894E00E94570688E021
:102180008093510460E086E494E00E9474070E940A
:10219000700D0E94650D60E080E00E94360D67EBD7
:1021A00071E086E494E00E94F40361E080E00E9424
:1021B000360D66EC71E086E494E00E94F40360ED75
:1021C00077E080E090E00E94BF0E0E94700D0E94B8
:1021D000650D60E080E00E94360D63ED71E086E4FD
:1021E00094E00E94F403C0E1D0E040E068E186E4BE
:1021F00094E00E94F10766E970E080E090E00E94C0
:10220000BF0E219791F70E94700D0E94650D60E04E
:1022100080E00E94360D62EE71E086E494E00E9458
:10222000F40361E0809162040E94E80D61E0809116
:1022300062040E94B90D61E0809164040E94E80D7F
:1022400060E0809164040E94B90D809166049091D1
:1022500067048F3F2FEF920741F061E00E94E80D85
:1022600061E0809166040E94B90D88E790E0909348
:102270006B0480936A0461E070E082E594E00E9460
:10228000C80180916604909167048F3F2FEF9207F9
:1022900019F060E00E94B90D809166049091670486
:1022A0008F3F2FEF920719F060E00E94B90D60E0B8
:1022B00070E087ED94E00E94810560E070E086E9BF
:1022C00094E00E948105C12CD12C84EBE82E82E49D
:1022D000F82EC092C604D092C704E092C804F092CF
:1022E000C904412C512C94EB692E93E4792E409231
:1022F000CA045092CB046092CC047092CD048091B9
:10230000CE04882309F443C0C091B204D091B30431
:1023100088809980AA80BB80A3019201C501B40185
:102320000E94011818162CF4488259826A827B8216
:102330000EC020E030E044EB52E4C501B4010E943D
:10234000A21687FF04C0C882D982EA82FB828090ED
:10235000BA049090BB04A090BC04B090BD04C0909F
:10236000CA04D090CB04E090CC04F090CD04A70137
:102370009601C501B4010E94011818165CF4C092C0
:10238000BA04D092BB04E092BC04F092BD0404EB0A
:1023900010E017C0C090C604D090C704E090C804F5
:1023A000F090C904A7019601C501B4010E94A216CC
:1023B00087FFEDCFE4CFC130D10509F451C00E94B1
:1023C000BB01C0917203D09173032097A1F761E024
:1023D00070E086E994E00E9481050E943C090E9419
:1023E000700D0E94650D60E080E00E94360D6EEE7B
:1023F00071E086E494E00E94F40360E089E00E94CA
:10240000360D409192045091930460919404709120
:10241000950422E086E494E00E94180361E080E0E5
:102420000E94360D63EF71E086E494E00E94F403AD
:1024300061E089E00E94360D40918E0450918F0436
:10244000609190047091910422E086E494E00E94EF
:10245000180364EF71E080E090E00E94BF0EAFCF00
:1024600061E070E087ED94E00E94810561E070E03A
:1024700086E994E00E9481050E94700D0E94650D1E
:1024800060E080E00E94360D69EF71E086E494E040
:102490000E94F40361E080E00E94360D63E072E088
:1024A00086E494E00E94F40380E10E94830E893E5A
:1024B00023E092077CF4823391054CF08A3F91052A
:1024C0005CF0823C914034F4C2E0D0E005C0C3E04F
:1024D000D0E002C0C0E0D0E0D0937003C0936F039F
:1024E00089E092E00E947B0B80916F0390917003D2
:1024F0000E94FE0C80916F039091700381309105D2
:1025000081F03CF4892BD9F481E592E00E947B0BA9
:1025100016C08230910569F0039789F48BE392E04D
:102520000AC080E192E00E947B0B81E080937103FE
:1025300006C086E292E00E947B0B109271038091AC
:102540007103882309F4C6C10E94700D0E94650DB5
:1025500060E080E00E94360D4091D3045091D40495
:102560006091D5047091D60422E086E494E00E9444
:10257000180361E080E00E94360D40910401509103
:102580000501609106017091070122E086E494E064
:102590000E94180360E085E00E94360D2AE040E8C2
:1025A00050E060E070E086E494E00E94CF0261E0D9
:1025B00085E00E94360D67E672E086E494E00E94B2
:1025C000F40360E089E00E94360D4091920450913E
:1025D0009304609194047091950422E086E494E061
:1025E0000E94180361E089E00E94360D40918E043C
:1025F00050918F04609190047091910422E086E4E0
:1026000094E00E94180360E08EE00E94360D6AE6B6
:1026100072E086E494E00E94F40361E08EE00E94A0
:10262000360D6EE672E086E494E00E94F40364EFF7
:1026300071E080E090E00E94BF0E8EE00E94830E69
:10264000BC01990F880B990B0E9451179B01AC019B
:1026500060E070EC8FE794E40E94A71620E030E081
:1026600040E85FE30E94351620E030E44CE156E498
:102670000E9456180E940E186B017C012CE63FEC5C
:1026800048E554E30E945618A70196010E94561887
:10269000A70196010E9456184B015C0126ED34E615
:1026A00049E759E3C701B6010E9456182BEC38E4FC
:1026B00044E85AE30E9436169B01AC01C501B401FF
:1026C0000E9436169B01AC0160E070E080E89FE359
:1026D0000E94A71623E333E948E853E40E94351625
:1026E00020E030E040E151E40E94561820E030E064
:1026F00040EA50E40E94A71620E030E040E052E4B7
:102700000E9436160E941917072E000C880B990B91
:102710000E9451176093D3047093D4048093D5041E
:102720009093D60480910F05882321F087ED94E0E3
:102730000E944E046091CF047091D0048091D10426
:102740009091D2040E9419178AE00E94240E62E739
:1027500072E088E793E00E94F4036091D3047091E3
:10276000D4048091D5049091D6040E947B0D66E834
:1027700072E088E793E00E94F4036091CF047091C7
:10278000D0048091D1049091D2040E947B0D2091BD
:1027900004013091050140910601509107016091BB
:1027A000D3047091D4048091D5049091D6040E94F2
:1027B000A21681110FC060E870E089E00E94240E2B
:1027C00065E972E088E793E00E94F40380E890E016
:1027D0000E94FE0C0E943C0910926E0310926D0341
:1027E000C0916D03D0916E03C53BD1058CF4BE0141
:1027F0008BE894E00E94D4056FE070E080E090E008
:102800000E94BF0E2196D0936E03C0936D03E8CF54
:1028100010936E0300936D03C0916D03D0916E030E
:10282000D7FD11C0BE018BE894E00E94D4056FE093
:1028300070E080E090E00E94BF0E2197D0936E037D
:10284000C0936D03E9CF10926E0310926D03C09197
:102850006D03D0916E03C53BD1058CF4BE0188E8B1
:1028600094E00E94D4056FE070E080E090E00E9468
:10287000BF0E2196D0936E03C0936D03E8CF1093E3
:102880006E0300936D03C0916D03D0916E03D7FD6D
:1028900011C0BE0188E894E00E94D4056FE070E0AA
:1028A00080E090E00E94BF0E2197D0936E03C0930A
:1028B0006D03E9CF6FEF70E08BE00E94240E69EAB0
:1028C00072E088E793E00E94F4038FEF90E00E94AB
:1028D000FE0C06C060E070E087ED94E00E94810588
:1028E00060E070E089E00E94240E69CDFC01558F04
:1028F000448F738F628F378F268F10AE10AA11AA64
:1029000012AA13AA80E090E0AFE7B3E484AB95ABE2
:10291000A6ABB7AB84E690E0A0E0B0E084A795A7B3
:10292000A6A7B7A7118E108E80E090E0A0E0B0E4DB
:1029300080839183A283B38340E050E060EA70E437
:10294000448355836683778340E050E060E87FE30B
:10295000408751876287738784879587A687B78763
:1029600080E090E0A0E0BFE3808B918BA28BB38BE3
:1029700080E090E0A0E2B1E4848B958BA68BB78BCE
:102980002FB7F8948091740390917503A09176030A
:10299000B09177032FBF44A555A566A577A5841BE5
:1029A000950BA60BB70B80A391A3A2A3B3A3089585
:1029B00010927B0310927A0388EE93E0A0E0B0E0DF
:1029C00080937C0390937D03A0937E03B0937F0359
:1029D00024E131E0309379032093780325EC30E053
:1029E000309385032093840324EC30E030938703F5
:1029F0002093860320EC30E03093890320938803F2
:102A000021EC30E030938B0320938A0322EC30E0FA
:102A100030938D0320938C0326EC30E030938F03AA
:102A200020938E03109291031092920310929303BD
:102A300010929403109218041092170480931904B2
:102A400090931A04A0931B04B0931C0486E291E0B7
:102A5000909316048093150424E031E04FEC54E089
:102A600063ED74E087ED94E00E94761420E031E09D
:102A70004EE854E062E974E086E994E00E9476143E
:102A8000809145048C30A0F491E0980F9093450418
:102A900080938B0490E0FC01EE0FFF1F8E0F9F1FB1
:102AA000FC01EF5DFB4F88EB9BE09283818303C0C9
:102AB0008FEF80938B04809145048C30A0F491E0DB
:102AC000980F909345048093880490E0FC01EE0FEA
:102AD000FF1F8E0F9F1FFC01EF5DFB4F88EB9BE0FC
:102AE0009283818303C08FEF8093880484E491E014
:102AF00090935304809352041092580410925904F6
:102B000010925A0410925B0410925C0410925D04BF
:102B100010925E0410925F0488EC90E09093610440
:102B20008093600488E090E0909363048093620453
:102B30008CE090E090936504809364048FEF9FEFA6
:102B4000909367048093660481E090E09093690419
:102B50008093680410926B0410926A0410926D04C2
:102B600010926C0488EE93E090936F0480936E044F
:102B70009093710480937004109249041092480459
:102B800088E391E0909347048093460487E2809322
:102B90004A0480E180934F0482E0809350041092B5
:102BA00051040895052E97FB1EF400940E94E91528
:102BB00057FD07D00E94041607FC03D04EF40C9476
:102BC000E91550954095309521953F4F4F4F5F4FF8
:102BD000089590958095709561957F4F8F4F9F4F89
:102BE00008950E942616A59F900DB49F900DA49F56
:102BF000800D911D11240895B7FF0C94F1150E94CA
:102C0000F115821B930B0895A1E21A2EAA1BBB1B80
:102C1000FD010DC0AA1FBB1FEE1FFF1FA217B307A8
:102C2000E407F50720F0A21BB30BE40BF50B661FBE
:102C3000771F881F991F1A9469F760957095809582
:102C400090959B01AC01BD01CF010895A29FB001F9
:102C5000B39FC001A39F700D811D1124911DB29FD0
:102C6000700D811D1124911D08955058BB27AA276E
:102C70000E944D160C94C7170E94B91738F00E9495
:102C8000C01720F039F49F3F19F426F40C94B617BE
:102C90000EF4E095E7FB0C94B017E92F0E94D817CB
:102CA00058F3BA17620773078407950720F079F481
:102CB000A6F50C94FA170EF4E0950B2EBA2FA02D62
:102CC0000B01B90190010C01CA01A0011124FF27D9
:102CD000591B99F0593F50F4503E68F11A16F040D4
:102CE000A22F232F342F4427585FF3CF46953795D3
:102CF0002795A795F0405395C9F77EF41F16BA0B98
:102D0000620B730B840BBAF09150A1F0FF0FBB1F45
:102D1000661F771F881FC2F70EC0BA0F621F731F8E
:102D2000841F48F4879577956795B795F7959E3FEB
:102D300008F0B0CF9395880F08F09927EE0F97957C
:102D4000879508950E948C1708F481E008950E94E9
:102D5000BB160C94C7170E94C01758F00E94B917F1
:102D600040F029F45F3F29F00C94B01751110C94F6
:102D7000FB170C94B6170E94D81768F39923B1F388
:102D8000552391F3951B550BBB27AA276217730791
:102D9000840738F09F5F5F4F220F331F441FAA1F25
:102DA000A9F335D00E2E3AF0E0E832D091505040E1
:102DB000E695001CCAF72BD0FE2F29D0660F771F8F
:102DC000881FBB1F261737074807AB07B0E809F075
:102DD000BB0B802DBF01FF2793585F4F3AF09E3FFA
:102DE000510578F00C94B0170C94FB175F3FE4F397
:102DF000983ED4F3869577956795B795F7959F5F3D
:102E0000C9F7880F911D9695879597F90895E1E088
:102E1000660F771F881FBB1F621773078407BA07E7
:102E200020F0621B730B840BBA0BEE1F88F7E09542
:102E300008950E9420176894B1110C94FB1708950F
:102E40000E94E01788F09F5798F0B92F9927B75143
:102E5000B0F0E1F0660F771F881F991F1AF0BA953E
:102E6000C9F714C0B13091F00E94FA17B1E008958B
:102E70000C94FA17672F782F8827B85F39F0B93F7D
:102E8000CCF3869577956795B395D9F73EF49095F1
:102E90008095709561957F4F8F4F9F4F0895E8946F
:102EA00009C097FB3EF490958095709561957F4F92
:102EB0008F4F9F4F9923A9F0F92F96E9BB27939540
:102EC000F695879577956795B795F111F8CFFAF450
:102ED000BB0F11F460FF1BC06F5F7F4F8F4F9F4F81
:102EE00016C0882311F096E911C0772321F09EE8DF
:102EF000872F762F05C0662371F096E8862F70E045
:102F000060E02AF09A95660F771F881FDAF7880F1E
:102F10009695879597F90895990F0008550FAA0B74
:102F2000E0E8FEEF16161706E807F907C0F01216DC
:102F30001306E407F50798F0621B730B840B950BDF
:102F400039F40A2661F0232B242B252B21F4089534
:102F50000A2609F4A140A6958FEF811D811D0895D1
:102F600097F99F6780E870E060E008959FEF80EC3C
:102F7000089500240A9416161706180609060895DF
:102F800000240A9412161306140605060895092E45
:102F90000394000C11F4882352F0BB0F40F4BF2BB4
:102FA00011F460FF04C06F5F7F4F8F4F9F4F0895F4
:102FB00057FD9058440F551F59F05F3F71F04795EA
:102FC000880F97FB991F61F09F3F79F087950895CF
:102FD000121613061406551FF2CF4695F1DF08C0EE
:102FE000161617061806991FF1CF8695710561050B
:102FF00008940895E894BB2766277727CB0197F9B3
:1030000008950E948C1708F48FEF089516F00C9421
:103010000E190C94B61768940C94B0170E94E01720
:10302000A8F39923C1F3AEF3DF93CF931F930F93CC
:10303000FF92C92FDD2788232AF02197660F771F7B
:10304000881FDAF720E030E040E85FEB9FE3883943
:1030500020F0803E38F021968F770E943616E8E601
:10306000F0E004C00E943616E5E9F0E00E94231962
:103070008B01BE01EC01FB2E6F5771097595771F0F
:10308000880B990B0E94511728E132E741E35FE377
:103090000E946918AF2D9801AE01FF900F911F910A
:1030A000CF91DF910E944D160C94C7170E946918AA
:1030B0000C94C7170E94B91738F00E94C01720F06F
:1030C000952311F00C94B0170C94B61711240C949E
:1030D000FB170E94D81770F3959FC1F3950F50E02E
:1030E000551F629FF001729FBB27F00DB11D639FBA
:1030F000AA27F00DB11DAA1F649F6627B00DA11D60
:10310000661F829F2227B00DA11D621F739FB00D05
:10311000A11D621F839FA00D611D221F749F332775
:10312000A00D611D231F849F600D211D822F762F0E
:103130006A2F11249F5750409AF0F1F088234AF0EB
:10314000EE0FFF1FBB1F661F771F881F9150504057
:10315000A9F79E3F510580F00C94B0170C94FB1713
:103160005F3FE4F3983ED4F3869577956795B795DE
:10317000F795E7959F5FC1F7FE2B880F911D9695F8
:10318000879597F9089519F416F40C94B6170C94D2
:103190000E190E94E017B8F39923C9F3B6F39F57AD
:1031A000550B87FF0E941C190024A0E640EA9001FD
:1031B00080585695979528F4805C660F771F881F76
:1031C00020F026173707480730F4621B730B840B77
:1031D000202931294A2BA6951794079420253125BB
:1031E0004A2758F7660F771F881F20F026173707E2
:1031F000480730F4620B730B840B200D311D411D09
:10320000A09581F7B901842F9158880F96958795DD
:1032100008950E948C17880B990B08959F3F31F0F9
:10322000915020F4879577956795B795880F911DF4
:103230009695879597F9089591505040660F771F9E
:10324000881FD2F70895DF93CF931F930F93FF92B8
:10325000EF92DF927B018C01689406C0DA2EEF01B9
:103260000E946918FE01E894A59125913591459138
:103270005591A6F3EF010E944D16FE019701A8019A
:10328000DA9469F7DF90EF90FF900F911F91CF9143
:10329000DF910895DB018F939F930E94F115BF91F9
:1032A000AF91A29F800D911DA39F900DB29F900D95
:1032B00011240895991B79E004C0991F961708F00E
:1032C000961B881F7A95C9F78095089597FB072E5E
:1032D00016F4009407D077FD09D00E94891907FCE5
:1032E00005D03EF4909581959F4F08957095619516
:1032F0007F4F08950E942616332312F48A1B9B0BDE
:103300000C9484190E942616B7FF0895821B930B14
:103310000895AA1BBB1B51E107C0AA1FBB1FA6171C
:10332000B70710F0A61BB70B881F991F5A95A9F76E
:1033300080959095BC01CD010895EE0FFF1F05907B
:0A334000F491E02D0994F894FFCFFA
:10334A000000B44200003E43000040001400540054
:10335A00000000004C01B900E30099011401F200D9
:10336A0006010000000080025302B00227024B024D
:10337A0037022802000000000808B900B002AF02B4
:10338A0000000000C501C8016E616E00696E66002A
:10339A006F76660046696C616D656E742057696464
:1033AA0074685F56616C75653A2000537465707075
:1033BA0065725F56616C75653A20004D6F646520D1
:1033CA0053656C656374656400496E697469616C00
:1033DA00697A696E672046696C616D656E74204D05
:1033EA00616B65722000436865636B696E67204D87
:1033FA006F6465203A200046696C616D656E7420C1
:10340A004D616B65720056657273696F6E20426515
:10341A007461004A61736F6E4B6974732032303184
:10342A0039005374617274696E672E2E2E004469D6
:10343A00613A00537465703A0049646C65204D6FB7
:10344A00646500526561647900414443203A200072
:10345A00427574746F6E207072657373656420535D
:10346A00544152542000427574746F6E2070726514
:10347A00737365642053544F502000427574746FFF
:10348A006E2070726573736564204553746F702083
:10349A00005265616479202D2D2049646C652053A2
:1034AA00746174652020004F4E004F4E2000323563
:1034BA00350054656D702053656E736F725F566187
:1034CA006C75653A20004865617465725F56616C77
:1034DA0075653A20004175676572206D6F746F7269
:1034EA005F56616C75653A200046616E5F56616C85
:0834FA0075653A20000D0A007F
:00000001FF
